:1000000080210020493B0000F37D00001D3B0000E3
:100010001D3B00001D3B00001D3B000000000000D8
:10002000000000000000000000000000513400004B
:100030001D3B000000000000FD3300001D3B0000E0
:1000400001350000013500000135000001350000D8
:1000500001350000013500000135000001350000C8
:1000600001350000013500000135000001350000B8
:1000700001350000013500000135000001350000A8
:100080000135000001350000013500000135000098
:100090000135000001350000013500000135000088
:1000A0000135000001350000013500000135000078
:1000B0000135000001350000013500000135000068
:1000C0000135000001350000013500000135000058
:1000D0000135000001350000013500000135000048
:1000E0000135000001350000013500000135000038
:1000F0000135000001350000013500000135000028
:1001000081F0004102E000BF83F0004330B54FEAC8
:1001100041044FEA430594EA050F08BF90EA020F35
:100120001FBF54EA000C55EA020C7FEA645C7FEAC8
:10013000655C00F0E2804FEA5454D4EB5555B8BFEB
:100140006D420CDD2C4480EA020281EA030382EA5C
:10015000000083EA010180EA020281EA0303362DEE
:1001600088BF30BD11F0004F4FEA01314FF4801CC1
:100170004CEA113102D0404261EB410113F0004FD3
:100180004FEA03334CEA133302D0524263EB43038A
:1001900094EA050F00F0A780A4F10104D5F1200E28
:1001A0000DDB02FA0EFC22FA05F2801841F1000183
:1001B00003FA0EF2801843FA05F359410EE0A5F157
:1001C00020050EF1200E012A03FA0EFC28BF4CF088
:1001D000020C43FA05F3C01851EBE37101F000453E
:1001E00007D54FF0000EDCF1000C7EEB00006EEB4B
:1001F0000101B1F5801F1BD3B1F5001F0CD34908D5
:100200005FEA30004FEA3C0C04F101044FEA44522B
:1002100012F5800F80F09A80BCF1004F08BF5FEAB2
:10022000500C50F1000041EB045141EA050130BD92
:100230005FEA4C0C404141EB0101013C28BFB1F5A4
:10024000801FE9D291F0000F04BF01460020B1FAEF
:1002500081F308BF2033A3F10B03B3F120020CDAC2
:100260000C3208DD02F1140CC2F10C0201FA0CF0A0
:1002700021FA02F10CE002F11402D8BFC2F1200C05
:1002800001FA02F120FA0CFCDCBF41EA0C019040BB
:10029000E41AA2BF01EB0451294330BD6FEA040404
:1002A0001F3C1CDA0C340EDC04F11404C4F12002EF
:1002B00020FA04F001FA02F340EA030021FA04F301
:1002C00045EA030130BDC4F10C04C4F1200220FA58
:1002D00002F001FA04F340EA0300294630BD21FA96
:1002E00004F0294630BD94F0000F83F4801306BF5C
:1002F00081F480110134013D4EE77FEA645C18BF50
:100300007FEA655C29D094EA050F08BF90EA020FE6
:1003100005D054EA000C04BF1946104630BD91EADE
:10032000030F1EBF0021002030BD5FEA545C05D1E1
:100330004000494128BF41F0004130BD14F5800420
:100340003CBF01F5801130BD01F0004545F0FE4194
:1003500041F470014FF0000030BD7FEA645C1ABFC9
:10036000194610467FEA655C1CBF0B46024650EA00
:10037000013406BF52EA033591EA030F41F400212C
:1003800030BD00BF90F0000F04BF0021704730B5B2
:100390004FF4806404F132044FF000054FF0000187
:1003A00050E700BF90F0000F04BF0021704730B548
:1003B0004FF4806404F1320410F0004548BF40421D
:1003C0004FF000013EE700BF42004FEAE2014FEA72
:1003D00031014FEA02701FBF12F07F4393F07F4F4D
:1003E00081F06051704732F07F4208BF704793F050
:1003F0007F4F04BF41F40021704730B54FF4607463
:1004000001F0004521F000411CE700BF50EA010265
:1004100008BF704730B54FF000050AE050EA01020E
:1004200008BF704730B511F0004502D5404261EB7E
:1004300041014FF4806404F132045FEA915C3FF4BF
:10044000D8AE4FF003025FEADC0C18BF03325FEA5C
:10045000DC0C18BF033202EBDC02C2F1200300FA0D
:1004600003FC20FA02F001FA03FE40EA0E0021FA32
:1004700002F11444BDE600BF70B54FF0FF0C4CF420
:10048000E06C1CEA11541DBF1CEA135594EA0C0FD2
:1004900095EA0C0F00F0DEF82C4481EA030621EA0D
:1004A0004C5123EA4C5350EA013518BF52EA033548
:1004B00041F4801143F4801338D0A0FB02CE4FF0FA
:1004C0000005E1FB02E506F00042E0FB03E54FF02A
:1004D0000006E1FB03569CF0000F18BF4EF0010E22
:1004E000A4F1FF04B6F5007F64F5407404D25FEA1E
:1004F0004E0E6D4146EB060642EAC62141EA5551D1
:100500004FEAC52040EA5E504FEACE2EB4F1FD0C12
:1005100088BFBCF5E06F1ED8BEF1004F08BF5FEA90
:10052000500E50F1000041EB045170BD06F0004642
:1005300046EA010140EA020081EA0301B4EB5C04EF
:10054000C2BFD4EB0C0541EA045170BD41F48011E7
:100550004FF0000E013C00F3AB8014F1360FDEBF0C
:10056000002001F0004170BDC4F10004203C35DAE8
:100570000C341BDC04F11404C4F1200500FA05F36B
:1005800020FA04F001FA05F240EA020001F000420C
:1005900021F0004110EBD37021FA04F642EB060182
:1005A0005EEA430E08BF20EAD37070BDC4F10C04AC
:1005B000C4F1200500FA04F320FA05F001FA04F270
:1005C00040EA020001F0004110EBD37041F100015C
:1005D0005EEA430E08BF20EAD37070BDC4F1200567
:1005E00000FA05F24EEA020E20FA04F301FA05F2CF
:1005F00043EA020321FA04F001F0004121FA04F277
:1006000020EA020000EBD3705EEA430E08BF20EA46
:10061000D37070BD94F0000F0FD101F00046400080
:1006200041EB010111F4801F08BF013CF7D041EA02
:10063000060195F0000F18BF704703F00046520006
:1006400043EB030313F4801F08BF013DF7D043EAD7
:100650000603704794EA0C0F0CEA135518BF95EA8D
:100660000C0F0CD050EA410618BF52EA4306D1D114
:1006700081EA030101F000414FF0000070BD50EA33
:10068000410606BF1046194652EA430619D094EABD
:100690000C0F02D150EA013613D195EA0C0F05D1A7
:1006A00052EA03361CBF104619460AD181EA0301FB
:1006B00001F0004141F0FE4141F470014FF00000B3
:1006C00070BD41F0FE4141F4780170BD70B54FF04E
:1006D000FF0C4CF4E06C1CEA11541DBF1CEA1355CE
:1006E00094EA0C0F95EA0C0F00F0A7F8A4EB0504B0
:1006F00081EA030E52EA03354FEA013100F08880A7
:100700004FEA03334FF0805545EA131343EA12636F
:100710004FEA022245EA111545EA10654FEA002624
:100720000EF000419D4208BF964244F1FD0404F5DD
:10073000407402D25B084FEA3202B61A65EB030539
:100740005B084FEA32024FF480104FF4002CB6EBF6
:10075000020E75EB030E22BFB61A754640EA0C0076
:100760005B084FEA3202B6EB020E75EB030E22BFB6
:10077000B61A754640EA5C005B084FEA3202B6EBF7
:10078000020E75EB030E22BFB61A754640EA9C00B6
:100790005B084FEA3202B6EB020E75EB030E22BF86
:1007A000B61A754640EADC0055EA060E18D04FEA44
:1007B000051545EA16754FEA06164FEAC30343EAE4
:1007C00052734FEAC2025FEA1C1CC0D111F4801FB1
:1007D0000BD141EA00014FF000004FF0004CB6E7AA
:1007E00011F4801F04BF01430020B4F1FD0C88BF49
:1007F000BCF5E06F3FF6AFAEB5EB030C04BFB6EB54
:10080000020C5FEA500C50F1000041EB045170BD46
:100810000EF0004E4EEA113114EB5C04C2BFD4EB73
:100820000C0541EA045170BD41F480114FF0000EF7
:10083000013C90E645EA060E8DE60CEA135594EA73
:100840000C0F08BF95EA0C0F3FF43BAF94EA0C0F76
:100850000AD150EA01347FF434AF95EA0C0F7FF4EB
:1008600025AF104619462CE795EA0C0F06D152EA3F
:1008700003353FF4FDAE1046194622E750EA410623
:1008800018BF52EA43067FF4C5AE50EA41047FF434
:100890000DAF52EA43057FF4EBAE12E74A0011D2E6
:1008A00012F5001211D20DD56FF47873B3EB6252CA
:1008B0000ED44FEAC12343F0004343EA505323FAD6
:1008C00002F070474FF00000704750EA013002D14B
:1008D0004FF0FF3070474FF00000704753B94AB9EE
:1008E000002908BF00281CBF4FF0FF314FF0FF3038
:1008F00000F00CB8ADF1080C6DE904CE00F008F87A
:10090000DDF804E0DDE9022304B07047704700BF62
:100910002DE9F04786468C460846089E15467446E3
:100920001946002B40F0C2808542B2FA82F245D9C6
:100930004AB1C2F1200300FA02FC2EFA03F39540FB
:1009400043EA0C0C94404FEA154EA8B2BCFBFEF8EB
:10095000230C0EFB18CC08FB00F943EA0C43994525
:1009600028D9EB1808F1FF3704D2994502D9A8F12C
:1009700002072B44A3EB0903A4B2B3FBFEFC0EFB5E
:100980001C330CFB00F044EA0344A04214D92C1998
:100990000CF1FF3304D2A04202D9ACF102032C4483
:1009A000241A43EA07401EB1D44000233460736028
:1009B000BDE8F0874746DDE76346F1E792BB431B9E
:1009C00001214FEA154EAFB2B3FBFEFC200C0EFB2B
:1009D0001C330CFB07F840EA0343984562D9EB1837
:1009E0000CF1FF3004D2984502D9ACF102002B443F
:1009F000A3EB0803A4B2B3FBFEFC0EFB1C330CFB01
:100A000007F744EA0344A7424ED92C190CF1FF33EF
:100A100004D2A74202D9ACF102032C44E41B43EAFE
:100A20000040C0E7C2F1200320FA03F19540904056
:100A30002EFA03F303434FEA154EAFB2B1FBFEFCAF
:100A40000EFB1C10190C0CFB07F841EA004188450D
:100A500004FA02F422D969180CF1FF3004D2884557
:100A600002D9ACF102002944A1EB08019BB2B1FB11
:100A7000FEFC0EFB1C110CFB07F743EA01439F42EF
:100A80000ED9EB180CF1FF3104D29F4202D9ACF120
:100A900002012B44DB1B41EA004192E76046E3E799
:100AA0006146F7E76046A3E76346B7E7834206D9A6
:100AB00016B9002108467BE7C6E900E0F9E7B3FA7A
:100AC00083F78FB9834201D3724508D8BEEB020485
:100AD00060EB030301209C461EB9002168E73846FD
:100AE000FAE7C6E9004CF8E7C7F1200CBB4022FA50
:100AF0000CF41C432EFA0CF120FA0CF3B84001431D
:100B00004FEA14490EFA07F5B3FBF9F81FFA84FE11
:100B100009FB18300B0C08FB0EFA43EA00439A4518
:100B200002FA07F240D9E31808F1FF3004D29A45DF
:100B300002D9A8F102002344A3EB0A0389B2B3FB54
:100B4000F9F809FB183308FB0EFE41EA03418E4514
:100B50002CD9611808F1FF3304D28E4502D9A8F1CF
:100B60000203214443EA0040A0FB0298A1EB0E01DE
:100B70004145CE46434602D306D14D4504D2B9EB9A
:100B8000020E68EB04030138002EA6D0B5EB0E026E
:100B900061EB030101FA0CFC22FA07F34CEA0303B0
:100BA000F940C6E9003198E74046C5E74346D9E732
:100BB0002DE9F04FD0E9006389B08846039383891B
:100BC00005931546B36803995B6806AA30469847B3
:100BD000002831DBDDE9064BA8FB0423049208FB67
:100BE0000B380498DFF8609015A3D3E90023414641
:100BF000FFF774FE049B4FF0FF3A9A4579EB080328
:100C0000074619D3A5FB044305FB0B3529460CA366
:100C1000D3E900232046FFF761FEA24579EB0505E5
:100C2000034609D38742B26806D305990091146838
:100C300003993A463046A04709B0BDE8F08F00BF9F
:100C400000CA9A3B00000000FFC99A3B0000000068
:100C500070B50646144DB5FBF1F528461446FFF76E
:100C600091FB0FA3D3E90023FFF706FCFFF716FE65
:100C7000294602463046FFF79BFF24EAE4744FF40E
:100C8000004540F2E7300021C4FB05014FF47A72C1
:100C90000023FFF723FEBDE8704006F09DBB00BFB8
:100CA000F6285C8FC2F5E03F00CA9A3B7FB5064B41
:100CB00005930648022304AA4FF48651049306F0D4
:100CC00088FB07B05DF804FB7C8E0000408B0000C1
:100CD00010B5154C7D22204640F22751FFF7B8FF92
:100CE00020467D224FF4C461FFF7B2FF20467D22EB
:100CF00040F64D21FFF7ACFF20467D2240F62D0146
:100D0000FFF7A6FF20467D2240F62D11FFF7A0FF3A
:100D100020467D224FF44461FFF79AFF2046BDE84C
:100D2000104006F05BBB00BFA88B00002DE9F0412E
:100D3000DFF83C800F4E104F45000024A54201DC37
:100D4000BDE8F081424631463846FFF731FF4FF4A7
:100D50000050002106F040FB002231463846FFF7E4
:100D600027FF4FF40050002106F036FB0134E5E781
:100D70009405020090D00300A88B0000B0B55F4B33
:100D80008AB093E8070000AF3D1D85E807004FF0EB
:100D90008043D3F80044C3F80044E1075ED5584BC4
:100DA0007B62022357483B6207F120024FF48651D1
:100DB00006F00FFB544807F093FB002872D0A30302
:100DC0007BD53C20FFF7B2FF504D4E487D62022498
:100DD0003C6207F120024FF4865106F0FAFA4C4BC0
:100DE0004848C7E9084307F120024FF4865106F04E
:100DF000F0FA4448C7E9084507F120024FF486514C
:100E000006F0E7FA434B3F48C7E9084307F12002E1
:100E10004FF4865106F0DDFA00213F4802F0A8F8B1
:100E20003E4B3848C7E9084307F120024FF482518E
:100E300006F0CFFA4FF40040002106F0CDFA002072
:100E40000623C7E9040007F11001B8613B7401F003
:100E5000F7FE2120002106F0BFFA28E0A20701D505
:100E60002F4B9DE7630701D52E4B99E7200701D54E
:100E70002D4B95E7A10301D52C4B91E7620301D5DA
:100E80002B4B8DE70223ACB92A4A1E48C7E908322A
:100E90004FF4865107F1200206F09BFA1A4807F03A
:100EA0001FFB50B9184B2448196806F006FB283779
:100EB000BD46B0BD214A7A6274E7FFF709FF2049B9
:100EC000284604F0D9FD1F4B98420FD06C4688B0DD
:100ED0006A461D4BC2E90530032342F8103F09481A
:100EE0004FF4C25106F075FAA546E0E7002206214C
:100EF000132002F031FA04F01DFE65E7908B00002C
:100F0000878E0000408B000034890000888F00002D
:100F1000B18F0000BB8F000018890000CF8F000048
:100F20009F8E0000B68E0000CD8E0000E28E000085
:100F3000FE8E0000238F0000408F0000578F0000BE
:100F4000AD0C00000000AD0B6D8F00002DE9F04FDF
:100F500091B08407009302F004030293C2F3C2032A
:100F600003F10103DDF86880039205460E46059300
:100F700040F0BE81041D30B1072909D86FF01B0075
:100F800011B0BDE8F08F01F00706341DC6F1080668
:100F9000009B4FF00009591E4FF0040A4FF0FF3339
:100FA0000193CDF810904F46CB4653460DB1009AB1
:100FB00022600598002800F3EB809A48009A82424C
:100FC00003D399488242C0F0E380039AA4EB050E54
:100FD00092074FEA9E0000F106810F2F00F2B480C5
:100FE000002D00F0088107F140020DEB020C019A80
:100FF0000CF8200C0CF8102C049801300490EAE056
:101000007A2860D84B280ED847285CD829282FD8B2
:10101000252855D057D820287DD02338D0F1000B73
:101020004BEB000B77E0A0F14C0CBCF12E0F4AD833
:10103000DFE80CF071494949494949494949494959
:101040004C49494949494949495A494C4C5A5A5AC3
:10105000714C6E497149184C18494983804C494973
:101060004C49800000204FF0000B4FF0040A39E09B
:10107000A0F12A0C5FFA8CFC012202FA0CFC1CEA9B
:101080000E0F48D11CF062502ED11CEA020B42D048
:10109000013C5444CAF1000C04EA0C04002D61D058
:1010A000A3EB050CA444B4453FF668AF002868D113
:1010B000042B47D158F8043B2360043404232AE06E
:1010C000019A013A01924FF0000B24E011F8010C53
:1010D0006C2834D111F8023C00206C2B8346C4D11B
:1010E0004FF0080A5346D3E708F1070828F007082D
:1010F0000734F8E802AB24F0070435B10698204421
:10110000B0423FF63BAFC4E900AB08344FF0000BF0
:101110004FF0080A534611F8010F002878D0BBF1B0
:10112000000F7FF46DAF2528F5D1019B01330193AA
:101130004FF0010B4FF0040AECE7584693E700200C
:101140008346A5E7082B02D06FF0150018E708F1D9
:10115000070828F00708F8E80223C4E90023083448
:101160000823D8E768B9042B02D108F10408A4E7E2
:10117000082BE9D108F1070828F0070808F108084A
:10118000EDE7059A013A059258F8042B00920DE715
:10119000039A900720D5A4EB050E4FEA9E004FF06E
:1011A000010CBEF5007FCFD20F2FCDD8F5B107F1DE
:1011B00040020DEB020EC0B2019A0EF8200C0EF8A0
:1011C000102CBCF1000F3FF417AF60F07F000EF859
:1011D000200C09F101090137C5F108020434069217
:1011E0004FF6DA7E97E74FF0000CDAE7BCF1000F1C
:1011F00001D00136EFE7029802360028EBD10098C3
:10120000CDE9063106F0FFFDDDE906310644E2E7EF
:10121000631BB3F5806F97D245B9A6F10804E018B7
:10122000AEE600BF80880000BC980000029A2860EB
:101230009B082B709DF81030C2B1EB7085F80290BE
:10124000B9F1000F05D008A80022C5F1010C9742A2
:101250000ED1C5F101030DF120084FF0000A0193F2
:101260000DF1300B574512D1601B89E66B70E5E735
:1012700010F8013B190608D504EB0C0EB64503F037
:101280007F033FF67BAE04F8013B0132DFE7B9F1A3
:10129000000F03D098F90020002A17DB029BD3B17E
:1012A0001AF80B2004F8012B0022019B9818204407
:1012B000B0423FF663AE98F8000004F8010B0099C5
:1012C0000392204606F0AFFD039A14440AF1010A86
:1012D00008F10108C6E798F8002055F8223000937D
:1012E000029B45F82230009806F08DFD421CDCE799
:1012F0006FF00D0044E600BF2DE9F04F95B000AF50
:101300000446D7F878B0BB61CBF3C0037A623B6187
:10131000396251B903784678807800EB8300204425
:101320000D46AE421AD8031B3B6294F80290E37854
:101330007B614E46B9F1000F02D01BF0010F16D1B0
:101340007B6953BB7B6A1BB1BA69396A20469847EF
:101350003D6A28465437BD46BDE8F08F00F10108CC
:10136000404606F050FD013040440135D9E794F87D
:1013700000A06368FB617B6A4FEA8A02FA6004EBB3
:101380008A0A002B40F001813D6AD04609EB0A032E
:10139000002643454ED1CA4413E01BF0020FD1D0C2
:1013A00094F800A04FEA8A03FB606368FB617B6AE4
:1013B00004EB8A0A002B78D13D6AB9F1000F4ED1B7
:1013C0004E461BF0050F0CBF022301237B627B6995
:1013D0000AEB43090BF002033B62CA45B9D01AF885
:1013E000021B1AF8013C54F82380AD4B984502D3F8
:1013F000AC4B984539D33B69002B43D0F86906F0D4
:1014000022F800283ED0E8468AB06A46A64B5361CF
:10141000FB69C2E906314FF400731384A34B42F811
:10142000103FA34800234FF4125101F0C7F8023DCA
:10143000C546D2E718F8012B7B6254F8220006F06B
:10144000E2FCFA6F7B6A01303AB1D7F8802096420D
:101450003EBFFA6F22F816000136054499E71BF0EB
:1014600004061CBF7E6ACA44ABE73B6923B1F86936
:1014700005F0E9FF0028C6D11BF0010F05D17B6AFA
:10148000ED1AAAE73B6A002BA7D0404606F0BBFC4A
:10149000FB6F43B1D7F880309E423FBFFA6F431CC9
:1014A00022F816300136054497E7B9F1000F71D0E4
:1014B0001BF0040671D0C846002607F140004A46DA
:1014C000514606F0B0FC7B695B00BB607B69CA4497
:1014D0000AEB43037B610BF002037B607B699A4557
:1014E0005DD12378FB6163781BF0020F06EB0302EA
:1014F0000CBF4FEA580100211BF0010FD2B240F09F
:101500009D801BF0040F14BF4046002094F802B0E9
:1015100094F803A03B616270A070E170BA69F96849
:101520007B6A20469847051EFFF613AFFB692370C0
:101530003B6963704146BA697B6A84F802B084F8FB
:1015400003A007F140009847B0F10008C0F2A38063
:101550003B6ABA697869A3EB0901FB68C91ABB68E1
:10156000C91A7B6A98470028C0F29780A84408EB04
:1015700000054FF0000B07F1300AB34560DB002196
:10158000BA697B6A08469847E3E64FF0000807F11E
:10159000300094E74E46C84695E7B04693E71AF800
:1015A000021B3F4A1AF8015C54F82530934202D3DB
:1015B0003C4A93421CD33B6923B1F86905F043FFD1
:1015C00000288BD17B68F3B908F1280207F12800C5
:1015D000024408F1010302F8101C07F1500252FA0C
:1015E00083F308F102085FFA88F803F8105C75E7E6
:1015F0003B692BB1F86905F026FF00287FF46EAF38
:101600001BF0010F09D006F1280207F12801731C15
:10161000561806F8205CDEB260E71BF0040F3FF4BA
:101620005DAF08F1280207F1280108F1010302EB80
:10163000010808F8105C5FFA83F84FE7002065E7BF
:101640001BF80A3087F82F3054F82390FB6FFBB15A
:1016500033F81B80BA697B6A012107F12F00984794
:1016600000281ADB0544B8F1000F06D1484606F001
:10167000CAFB00F101081FFA88F8BA697B6A414683
:1016800048469847002808DB05440BF1010B74E736
:10169000D7F87C80DEE745465BE6054659E600BFA5
:1016A00080880000BC980000EC8F0000040000015E
:1016B000108B0000014B1860704700BF0000002035
:1016C00030B587B00025CDE903010446009503A994
:1016D0000548059500F018F9DDE904309842B8BFD7
:1016E000255407B030BD00BF957400002DE9F047C8
:1016F000058B04462807904611D4022905F00705FA
:1017000040F0CD80204605F060FF78B10138218B94
:10171000042811D8DFE800F0C3106D859500012979
:101720000CBF45F0100545F02005258388F311888E
:10173000BFF36F8FBDE8F08701F0070AAA4500F0FC
:10174000A6800027B9463E46A368002B00F0BD8066
:1017500041F00801218388F31188BFF36F8FA168DE
:10176000002900F0BB800D68002900F0B780D1F897
:101770000480334652462046C047002D76D02B6861
:1017800029461D46F0E701F007035A1F012A1BD81E
:10179000002221F00701062B276889B2C4E9002244
:1017A00009D13B4603E0628B013262831B68002B48
:1017B000F9D141F002012183204605F006FF0028FF
:1017C0007BD041F0200177E0042B0AD121F0070102
:1017D00089B22183204605F0F8FE10B141F02001C6
:1017E0002183218B01F0070AAA4550D00027B94672
:1017F000AAE7236921F0070141F00601062DD3F87D
:10180000009021832DD1B9F1000F40D041F00801A3
:10181000218388F31188BFF36F8F3A492046C84768
:1018200029E021F00701236941F0040189B2042D68
:10183000D3F804902183E6D000273E464FF0040AF7
:1018400082E721F00701236941F0050189B2052DE6
:10185000D3F808902183D6D000273E464FF0050AE2
:1018600072E700273E464FF0060A6DE72B4687E7F2
:10187000B9F1000FD1D14FF02003EFF3118883F3BA
:101880001288BFF36F8F238B23F008032383258BEC
:10189000EA062ED525F01003238305F007056669B7
:1018A000218B002EBFF66FAF00232768C4E90033F9
:1018B00021F0070141F001012183218B01F0070A8A
:1018C000AA454FF000097FF43FAF002F9BD041F0B5
:1018D0000801218388F31188BFF36F8F002FC7D0D1
:1018E0003D68394633465246204605F09AFE2F465B
:1018F000F4E7AB067FF51AAF25F02003238305F04C
:101900000705FFE64F7600002DE9F04F814695B0C0
:101910008B4617461C460025387808B9284658E3F8
:101920007B1C2528039306D05946C8470028C0F2DF
:1019300050830135FBE1182200210EA806F07EFA43
:101940007B78252B7DD00023781C98469E469C46AC
:101950001E46014610F8012B2B2A00F0A18000F250
:101960009880202A00F09F80232A00F09F802BB1CE
:101970009DF8403043F040038DF84030B8F1000F3F
:1019800005D09DF8403043F020038DF84030BEF183
:10199000000F05D09DF8403043F010038DF8403023
:1019A000BCF1000F05D09DF8403043F008038DF8DE
:1019B00040302EB19DF8403043F004038DF84030A4
:1019C0009DF8403003F04400442803D16FF38613A0
:1019D0008DF840309DF840302A2A43F080038DF87E
:1019E00040307FD19DF8412042F001024B1C8DF820
:1019F00041201A782E2A9DF841200CBF0121002198
:101A000061F341028DF8412078D15A782A2A6ED0AC
:101A1000013300224FF00A0C194611F8010BA0F116
:101A20003006092E40F295809DF840101292C1F3C5
:101A3000400040EAD2700A4660F341028DF840202F
:101A40005CE0BA1C03928DF843309DF84130DA0710
:101A500040F12E8154F8048BB8F1000F07DA9DF89D
:101A6000402042F004028DF84020C8F100085E07D3
:101A700040F1278154F804ABBAF1000F80F22681BF
:101A80009DF841306FF341038DF841304FF0FF3A3C
:101A90001CE12D2A0DD0302A7FF469AF012358E7CD
:101AA0004FF0010C55E74FF0010E52E74FF00108DF
:101AB0004FE701264DE70EFB0262303A0346184617
:101AC00010F8016BA6F1300CBCF1090FF3D9994263
:101AD0008FD09DF840101192D20F62F341018DF822
:101AE000401086E70B4600224FF00A0EE7E79DF80C
:101AF000412042F004028DF8412002331A786C2A0A
:101B000047D02BD8682A31D06A2A4BD04C2A51D0E2
:101B10001A4612F8013B0392782B9DF841208DF86C
:101B2000433000F2BE806D2B51D8692B00F2B98092
:101B3000572B67D8412B03D0453B022B00F2B180D5
:101B40009DF84230042262F302038DF842300123F3
:101B500073E00CFB0202303A0B465DE7742A25D095
:101B60007A2AD5D19DF8412006210CE05A78682ABE
:101B70009DF8412006D1012161F3C6028DF8412074
:101B80000233C5E7022161F3C6028DF8412001331B
:101B9000BEE75A786C2A9DF8412001D10421EBE779
:101BA0000321F0E79DF841200521ECE79DF8412055
:101BB0000721E8E7BDF8402022F4F04222F00202BB
:101BC00042F4804242F00202ADF84020DFE76E3B73
:101BD000D9B201238B4040F282410B4237D113F03E
:101BE000240F51D1D8075CD59DF84230032161F311
:101BF00002038DF8423002F07803A3F140014B421A
:101C00004B411AE0A3F15801C9B2012000FA01F1D9
:101C100011F4624F94D140F6010631421DD111F406
:101C2000043F3ED09DF8423060F3020302F0780298
:101C3000402A8DF8423034D000239DF84020C2F372
:101C400040010B4363F341028DF84020FDE69DF80F
:101C50004230022161F30203E8E79DF842100220BE
:101C600002F0780260F30201402A8DF8421002BFB0
:101C70009DF8401041F001018DF84010632BDBD13D
:101C8000131E18BF0123D8E79DF84230032161F3EA
:101C9000020312F0780F8DF8423014BF01230023A5
:101CA000CBE79DF8403043F001038DF84030C3E7A7
:101CB0009DF94020002AB4BFDDF844804FF0FF3882
:101CC000D5E698077FF5E2AEDDF848A09DF8411013
:101CD0000023CDE911339DF8423003F00703012BB7
:101CE000C1F3C30133D1CB1E042B04D8DFE803F0CA
:101CF000214646212100236801294FEAE372CDE9FC
:101D00000E321CD19DF93830DA17CDE90E32043489
:101D10009DF8403013F0030650D0039B3A465946D5
:101D2000484605F071FD0028C0F253810544039F29
:101D3000F2E554F8043BDA17CDE90E32E8E7022960
:101D4000E5D11AB243F3C033CDE90E23DFE7022B0E
:101D500024D1CB1E042B04D8DFE803F01810101890
:101D60001800012954F8043B4FF0000214D0022956
:101D7000CDE90E32CCD19BB20E93C9E7073424F0E3
:101D80000704F4E80223CDE90E23C1E754F8043B2D
:101D90000E9300230F93BBE7DBB2CDE7042B08D1F2
:101DA000073424F00704D4E900230834CDE90E23D6
:101DB000AEE7032BACD154F8043BDDE79DF84300BC
:101DC0007828B4D862281CD825283FF4ADAD58280F
:101DD000ADD10DF136030093DDE90E0108AB10AA79
:101DE00005F0CCFCBAF1000F074680F29A80002F74
:101DF0009DD00DF13603D81B002E00F0C1800130BC
:101E0000BEE06338152892D801A252F820F000BF36
:101E1000E51E0000F71E00002F1D00002F1D000012
:101E20002F1D00002F1D0000F71E00002F1D0000B9
:101E30002F1D00002F1D00002F1D0000851F00001A
:101E40001D1F0000431F00002F1D00002F1D00005C
:101E5000691E00002F1D00001D1F00002F1D000027
:101E60002F1D00001D1F0000BAF1000F0E9F35DB73
:101E70005146384605F0CEFF07EB000A002F3FF42D
:101E800056AF00269DF8423013F01002059200F084
:101E9000938002305B06119A48BF129B0492104453
:101EA00048BFC018B8F1000F40F3A0809DF8402053
:101EB000A8EB0008C2F380035007069300F1968058
:101EC000510640F189803EB159463046C847002846
:101ED0007FDB069B01351E4630227EE0384605F04A
:101EE00092FFC9E70E9B8DF82030002608AF0DF158
:101EF000210A0120C6E719075CBFC3F300135E0186
:101F0000DDE90E2348BF2B26002BBFF662AF5242FD
:101F100063EB4303CDE90E232D265AE7002658E74D
:101F200000269DF840200DF13603DB1B6FF386126F
:101F30009A458DF840207FF65AAFAAEB0303119320
:101F400055E70E9890B30DF13603009310AA08AB35
:101F5000002105F013FCBDF8423003F0EF0343F419
:101F6000F04343F01003BAF1000F0746ADF84230DA
:101F7000D6DA00283FF4DBAE0DF13603181A00263E
:101F80009A467FE70E9B07293FF6D1AEDFE801F0C6
:101F90000C04060C08080C0C1D70C8E61D80C6E673
:101FA000EA17C3E90052C2E61D60C0E62E4F06469E
:101FB00007F1050A052065E71A0748BF013069E700
:101FC0000793104606925946C8470028DDE90623C4
:101FD00004DA15B0BDE8F08F2022434619460029E7
:101FE00003F1FF33ECDC45446D1A98462EB1594697
:101FF0003046C8470028ECDB01359DF84230DA0650
:1020000001D41B0705D559463020C8470028E0DB1E
:102010000135059B33B19DF843005946C847002858
:10202000D7DB0135049E2E4405E059463020C847D1
:102030000028CEDB0135731B002BF6DC53463A46F5
:102040005946484605F0E0FB0028C2DB0544A84499
:10205000A8EB0503002B7FF76AAE59462020C8473E
:102060000028B6DB0135F3E7A090000008B54FF07B
:102070002002EFF3118382F31288BFF36F8F01F018
:10208000EBFE034805F019FA01F0B6F8FCE700BFD3
:10209000A690000002F09EBF2DE9F047DFF85880BF
:1020A000044607464FF0010914B93846BDE8F087E9
:1020B00094FAA4F5B5FA85F509FA05F32E0108EBB3
:1020C00005156FEA030A24EA03042B7B002BEBD0EF
:1020D00058F806301B694BB94644042273682846F9
:1020E000196807EA0A0700F055FADDE7284698471D
:1020F0000028D9D1F0E700BF808B000030B510492F
:10210000104889B0002206F085FB0F4D0F490022D0
:102110000023CDE9062300240E23CDE90334CDE9C5
:1021200001440B4B00944FF44072284604F04CF8E5
:102130000849284606F036FA204609B030BD00BFEF
:1021400059210000A8060020200200208010002055
:1021500041240000CF900000014804F08FB900BF77
:102160000C0200202DE9F04780461F480F4605F07D
:1021700072FD0646002830D000252846BDE8F087CD
:10218000237B73B12368DB680BB120469847236833
:102190001B69D3B9636804221968204600F0FAF974
:1021A000013610344C45EBD3B8F1000FE5D0002DCB
:1021B000E2D02846FFF770FF0546002FF7D0002138
:1021C0004FF4A47004F06AFCF1E720469847002819
:1021D000E0D00AFA06F31D43E2E7044CDFF8109062
:1021E00005464FF0010ADDE718080020808B00004B
:1021F000908B0000014B53F820007047CC8B0000FF
:1022000008B5034608462BB1044A136000F048FCA9
:10221000002008BD6FF01500FBE700BF04000020A0
:1022200010B5044C237813B9034804F027F90123AF
:10223000237010BD441000200C02002010B504468D
:10224000084805F008FD5CB1BFF35B8F064B53E80F
:10225000001F013943E80012002AF8D1BFF35B8F59
:1022600010BD00BF10080020140800200020064BFD
:10227000BFF35B8F014653E8000F43E80012002ACA
:10228000F9D1BFF35B8F70471008002070B5FFF7DE
:10229000EDFF084C084E0546B44200D370BD63689C
:1022A0005B792BB123685B6813B1294620469847B8
:1022B0001034F1E7808B0000908B000010B5044CC7
:1022C0000449204605F064FB034B1C6010BD00BFB1
:1022D0006C010020B88B00000808002008B5074AF0
:1022E000074800231370074A4FF400411360FFF7BB
:1022F00087FFBDE80840FFF7E1BF00BF45100020A1
:10230000537C0000100800200146002201480023F1
:1023100005F05FBB6C010020014805F0F8BB00BF71
:102320006C010020024B0146186805F040BC00BF5C
:1023300008080020014805F06EBC00BF6C010020B9
:1023400070B5284B187800284BD0FFF7E5FF0546FD
:1023500090B1BFF35B8F244B53E8001F013943E872
:102360000012002AF8D1BFF35B8F204C204EB442FC
:102370002DD32846FFF7D6FF1E4B1F4C1B68002BA2
:1023800019DD06F041FA4FF47A72A0FB020302FB5A
:102390000131C30BD4E9002043EA41439B1A4FEAC1
:1023A000D13140F2E93261EB0001934271F1000159
:1023B00001D3FFF76BFFD4E9003213F57A7342F1D2
:1023C0000002C4E90032BDE87040FFF7B3BF6368A4
:1023D0005B7923B1236829461B682046984710344F
:1023E000C5E770BD4410002014080020808B000059
:1023F000908B000010080020A006002070B50D4D45
:10240000297861B90120FFF7ADFE0B4C0B4EB442A9
:1024100006D3FFF795FF0028FBD101232B7070BD79
:1024200063685B791BB1236820469B68984710342A
:10243000EDE700BF45100020808B0000908B00006E
:1024400000212DE9F0470846FFF78CFE044648B30B
:1024500040F267684FF0000904F03AFB1A4B18602D
:1024600030B11A4B1B68092B02DD194804F006F83D
:10247000184FDFF85CA0002544B12046FFF70CFEA2
:10248000044618B94FF0FF384FF0FF39FFF758FFF7
:10249000064628B9B5B942464B46504604F00EF8F8
:1024A0003546E9E74FF0FF384FF0FF39D4E72B68A6
:1024B0009B691BB100221146284698471035BD4242
:1024C000F5D3E8E7044DFAE70C08002014080020D3
:1024D0000C020020908B0000808B000013B5184880
:1024E00005F0B9FB174B1B787BB14FF02003EFF3DE
:1024F000118483F31288BFF36F8FFFF721FF84F3FA
:102500001188BFF36F8F02B010BD0F4B1B68002BFB
:10251000F9D050B900220023CDE900230B484FF435
:102520000042002304F0FEFCEDE70A28EBD1074847
:1025300006F07CF9064802B0BDE8104003F09EBFEB
:1025400014080020451000200C080020A8060020D8
:102550000C02002010B5064B1B6804469847214624
:10256000A060044805F0B3FABDE81040FFF7B6BF1D
:10257000040000206C010020044A054B9B1AB1EBBB
:10258000D30F34BF52F8310000207047E88A0000B2
:10259000808B0000084BC31A10B41B114468013330
:1025A000237143689A7143681960436801225A7124
:1025B00010BCFFF735BE00BF808B00002DE9F04F47
:1025C0008FB0C1F3CB44C1F3492605900D46904628
:1025D00099461734002E3CD04FF0040B09AF4FF052
:1025E0000A0A002231460BABCDF808B00197CDF8AE
:1025F00000A04046CDE90B220D920796FEF77CFE27
:10260000C0F30903181920F0070080081E4663F381
:1026100052250693FFF778FE044678B1069B0C938B
:10262000103000220B900D92CDE9017B0C4A0799E6
:10263000CDF800A00BAB4046FEF75EFE66F35225D8
:1026400005994B462A4620460FB0BDE8F04F05F0ED
:1026500038BB24F007008008FFF756FE0446EDE77C
:10266000977C00002DE9F04F87B0DDE91269DDE9C4
:10267000105A04460F4693469846B6B31021CDF83B
:102680000090334652460020CDF81490FEF75EFCD1
:102690000146174B039104F007040BF0070BE4000D
:1026A00003EA412305F1170044EA8B141C43084454
:1026B000104B20F0070003EAC54380081C43FFF7D6
:1026C00023FE054640B13EB10399CDF80090334654
:1026D00052461030FEF73AFC434622463946284619
:1026E00007B0BDE8F04F05F0ECBA3146D1E700BFC6
:1026F00000FE07000000F87F0EB403B503AB0146EF
:1027000053F8042B0448019305F002FB02B05DF876
:1027100004EB03B0704700BF397D0000CA0605D442
:102720008B064CBF02490349FFF7E6BF704700BF65
:10273000E5900000E49000002DE9F04F89B09B4641
:102740009DF848300493DDE913930593049B0692AA
:10275000DDE9157604460D46002B00F0878006F073
:102760000803079305F095FA06F0020A02460028CE
:102770004BD086492046FFF7BFFF8046BAF1000FD5
:1027800008D016F0440F42D181492A462046FFF76F
:10279000B3FF804406F001035BB17E4B049A7E498F
:1027A00053F822207D4B2046002A08BF1A46FFF727
:1027B000A3FF06F00803002B55D0794B049A794902
:1027C00053F822202046FFF797FF0546069B2BB1C2
:1027D00075491A462046FFF78FFF0544BBF1000FED
:1027E00005D072495A462046FFF786FF0544454406
:1027F000B9F1000F49D1002F4FD1F30700F1C0808C
:1028000031462046FFF78AFFB4E08046B6E7684BC2
:1028100018680028BDD0674B4FF47A7E1B68B5FB63
:10282000F3F54FF46162B5FBF0F300FB1355B3FB16
:10283000F2FA0EFB05F502FB1A323C21B5FBF0FC67
:10284000B2FBF1F300FB1C5501FB13220EFB05F557
:102850000092B5FBF0F55849CDE901C55246204636
:10286000FFF74AFF95E706F00805AFE7BBF1010F58
:1028700006D1B9F1000F64D1002F7BD000250CE008
:10288000B9F1000FF8D04D485CE04D484D494B463A
:10289000224604F0A7FD002F68D0DFF82C91DFF866
:1028A0002CA1102F31462046B84628BF4FF0100803
:1028B000FFF734FF4FF0000B5D4545DC059B5146AB
:1028C0001A782046FFF718FF4FF0010B1BF0070F97
:1028D00003D149462046FFF70FFFD8453BD9059B5A
:1028E000514613F80B202046FFF706FF0BF1010BB2
:1028F000BBF1100FEAD1364920464FF0000BFFF72D
:10290000FBFE5A46059B9A5CA2F120015F2928BF75
:102910002E2230492046FFF7EFFE0BF1010BBBF1F1
:10292000100F1DD01BF0070F03D149462046FFF7BB
:10293000E3FED8455A46E5D849462046FFF7DCFE77
:10294000EBE71F48049DA1E749462046FFF7D4FE68
:102950000BF1010BB0E720492046FFF7CDFEC5E79C
:10296000059BB7EB0807434405939AD1049B002BC2
:102970007FF443AF204609B0BDE8F04F05F0CFB972
:10298000064A05492046FFF7B7FE39E7EC900000FC
:10299000F0900000DC8B0000C1960000E790000082
:1029A000F08B0000159100001B9100001F910000AA
:1029B000200800201C080020F99000006F7D000016
:1029C000397D0000117D00002C9100002491000051
:1029D0002E910000309100002A9100002DE9F04175
:1029E0000F884B688E6886B005460C469046C7F344
:1029F00082175BB1134A9B1A43F3CF0100291FDBF7
:102A00002078C0F3C200FFF7B7FD03462146608877
:102A100051F8102B0097C2F34922002A01EB02045F
:102A2000C0F3CB0008BF0021CDE90308CDE90114B4
:102A3000002231462846FFF77FFE06B0BDE8F08150
:102A40000023E3E7E88A000073B542F20F738B427C
:102A500028BF0B4605680F4A04460521684604F066
:102A600039FD63680C495B6806460B22284605F071
:102A700042F963683246694628465B6805F03BF9CF
:102A8000636806495B681B22284605F034F902B0EA
:102A900070BD00BF049800004F910000339100000A
:102AA000074A00210123904206D8064A01B90123B2
:102AB0001360054B1860704740085B000121F2E786
:102AC00040420F001C08002020080020014B00207D
:102AD0001960704738080020024B034801221A7021
:102AE00005F01DB947100020208C00000148FFF7B9
:102AF000ABBF00BF208C000010B5064B18680C4619
:102B0000FFF778FB21460346BDE8104002480F223C
:102B1000184700BF38080020208C0000F8B5074F88
:102B20000D4604464618B44201D12846F8BD14F8B3
:102B3000011BBB6801485B689847F4E718890000EF
:102B40002DE9F84305464FF02003EFF3118683F398
:102B50001288BFF36F8F0E4B0E4F1C68DFF8388062
:102B60004FF00C092CB986F31188BFF36F8FBDE8C5
:102B7000F883D4E90123002D18BF13462BB198F830
:102B8000142009FB02F2B85C98472468EAE700BF0A
:102B9000580800204C080020340E002070B5084D65
:102BA000084E2C68013C002C02DA00232B6070BD1B
:102BB00056F82400012100F0DBF9013CF3E700BFE7
:102BC0003C0800206401002070B5194B1C7DBFF348
:102BD0005B8F04F01F0301229A40164B610903EB3F
:102BE0008103D04353E8001F01EA000543E8005683
:102BF000002EF7D1BFF35B8F0A4213D00E4B0F4D5F
:102C00008BB10C236343EA18E85C517805F02EF988
:102C10000020FFF795FF0C235C432A1900232B515A
:102C2000C2E9013370BD83F31188BFF36F8FEFE703
:102C3000340E0020600800206D7E00004C0800204B
:102C400010B54FF02003EFF3118483F31288BFF324
:102C50006F8F064B0C2202FB003307C983E8070085
:102C600084F31188BFF36F8F012010BD400800204E
:102C70002DE9F047814B82B01C7D00AF06464FF036
:102C80002003EFF3118983F31288BFF36F8F0C25B4
:102C90007B4BDFF8F08165435A19595D00297FD0DD
:102CA00007CA08EB050C8CE8070000225A5589F387
:102CB0001188BFF36F8F0C23634308EB030218F8EE
:102CC0000330002B00F0CB80731C10D0D2F808C06A
:102CD0006D4D6E4A4FF400400021ECFB0051002383
:102CE0002846FDF7FBFD0121301A05F06DFD0C2390
:102CF0006343674E18F80330012B1AD0BFF35B8F84
:102D000056E8005F013D46E80053002BF8D1BFF3C1
:102D10005B8F75B9384603F067F8DFF878A11C239C
:102D2000CAF8005058433D681C3805443B689D4232
:102D300041D203F0F5FD0120FFF702FFBFF35B8FE7
:102D4000554B620903EB820304F01F0101228A4004
:102D500053E8000F104343E800010029F8D1BFF306
:102D60005B8F4E4B43B10C235C4308EB040318F814
:102D70000400597805F06EF8BFF35B8F56E8003F0A
:102D80005A1C46E800210029F8D1BFF35B8F0BB92C
:102D9000FFF704FFFFF718FF03F0D6FD01205FE007
:102DA0000146204600F086F8002880D007C8454438
:102DB00085E807007BE7284604F0F1FF00285BD197
:102DC000284605F000F8002856D1284604F0F1FF07
:102DD0000146002850D1284600F0CAF820F0200310
:102DE0007833814648D010F1860F45D000283BDA71
:102DF0000120D5F800A000F0AFF86D468AB06B4610
:102E00002749C3E9051A27497960C3E9070903F18E
:102E10001002381D03F1230103F1270C10F801EB18
:102E200001F801EF8C45F9D11F49196100231F48B2
:102E30004FF44151FFF7C2FBAD46FFF7AFFE0C2345
:102E40006343002208F80320BFF35B8F56E8003F7E
:102E5000013346E80032002AF8D1BFF35B8F00202F
:102E60000837BD46BDE8F087DAF80030104A42F86E
:102E700023500133CAF800301C3D57E7340E0020C0
:102E8000400800204C0800203F420F0040420F0045
:102E9000080000203C08002060080020557E00004B
:102EA000959100000002010305000002588B00000C
:102EB000640100202DE9F04F85B00E4603A900F013
:102EC00043F81E4B039DD3F800A0DFF87480431E27
:102ED0001BB203EB4303044605EB83054FF40047A5
:102EE0004FF0000B24B9A146484605B0BDE8F08F6D
:102EF0006868144AC4465946E0FB07C1002360468F
:102F0000FDF7ECFC0190A8680E4AC4465946E0FB68
:102F100007C100236046FDF7E1FCBAF1FF3FA94677
:102F200001D0824505D9731CDED0019B1844B04204
:102F3000DAD9013CA4B20C3DD4E700BF0C0000205C
:102F40003F420F0040420F0008B9024B0B600020C7
:102F5000704700BF308C000003289ABF024B53F823
:102F600020000248704700BF308C0000E69000004F
:102F700070B5846903460D46002C3AD004F023FF57
:102F8000002839D12148227A465CB24237D0204805
:102F9000405C904236D1E26818469047002815DA26
:102FA000022D11D0032D10D110F1860F0CD0BFF3DC
:102FB0005B8F231D53E8001F41F0020143E800121C
:102FC000002AF7D1BFF35B8F267270BD022D2672E7
:102FD00001D00020F9E70434BFF35B8F54E8003FD1
:102FE00023F0020344E80032002AF7D1BFF35B8FDD
:102FF000EFE76FF05700E8E74FF0FF30E5E76FF0DD
:103000007700E2E76FF08500DFE700BFDD910000A9
:10301000D9910000014804F037B800BF408C00008F
:1030200038B5044618B90F4B0F485B68984761687C
:10303000B1F5683F0FD0B1F5680F0CD00B4DA94228
:1030400009D011F4686107D00948214605F07BFAE0
:1030500000232360656038BD2068142204F0EEFE72
:10306000F8E700BFFC000020E19100002C5F5CA9A4
:10307000640D002008B520B34368B3F5683F10D154
:1030800001220368BFF35B8F53E8001F002903D1BF
:1030900043E800200028F7D1BFF35B8F0DD100205B
:1030A00008BD094A93420AD000684FF0FF324FF042
:1030B000FF3303F02DF90028F1D00448F0E704486D
:1030C000EEE76FF4E040EBE72C5F5CA9E98FFFFFD0
:1030D000EA8FFFFF08B5D8B14368B3F5683F10D158
:1030E00000220368BFF35B8F53E8001F012903D15F
:1030F00043E800200028F7D1BFF35B8F0BD10020FD
:1031000008BD074A934208D0006803F07BF9F6E750
:103110006FF4E040F4E70348F2E70348F0E700BF4C
:103120002C5F5CA9E98FFFFFEA8FFFFF10B5044613
:1031300018B91D4B1D485B6898476368B3F5683F35
:103140002FD0B3F5680F2CD0194A934219D12368B8
:1031500003BB18484FF0FF324FF0FF33214602F017
:10316000D3FF08B923681BB90F4B13485B68984716
:1031700020681422002104F061FE4FF4686363604C
:1031800008E0B3F5683F0DD83A2B03D040F6BA6299
:103190009342DED1206805F019FA636843F03A03E0
:1031A000636010BD054AF3E7FC000020E1910000D8
:1031B0002C5F5CA9640D0020079200003A00003AE1
:1031C00008B5064906484023142205F0AEF9BDE8CB
:1031D00008400449044803F0C9BF00BF6408002048
:1031E000640D0020488C00005C8C00000149102216
:1031F0000A60704710ED00E072B6404080F311881D
:10320000BFF36F8FBFF34F8F30BF62B6BFF36F8FC7
:10321000704700BF72B6494081F31188BFF34F8FEA
:1032200020BF80F3118862B6704700BF2DE9F047D8
:10323000814600AF0C4600294CD06E468AB0D1E9D9
:103240000012A3686D462748A8464FF0050AC5E955
:103250000501C5E9072348F810AF2348424600237B
:103260004FF42151FFF7AAF9B546D4E90312636977
:10327000AD461E48C5F810A0C5E90501C5E90723FC
:103280001948002342464FF42151FFF797F9B546FC
:1032900088B0E3696D46164AA8464FF0030AC5E9AF
:1032A000052348F810AF1048002342464FF4C2519E
:1032B000FFF784F9B546A369AD460E4AC5F810A0DC
:1032C000C5E905230848002342464FF4C251FFF7E1
:1032D00075F9B5462146484602F094FDBD46BDE865
:1032E000F08700BF34920000508B00006392000012
:1032F00092920000A192000040B2002807DB044A2D
:103300004109012300F01F00834042F8213070473B
:1033100000E100E040B200280CDB4309064900F060
:103320001F0020330122824041F82320BFF34F8F3A
:10333000BFF36F8F704700BF00E100E0054B42090B
:1033400000F01F0053F82220012303FA00F0104080
:10335000704700BF00E100E040B20028A8BF00F1C4
:10336000604001F10101B8BF064B4FEA4111ACBF0B
:1033700000F5614000F00F00C9B2B4BF195480F8E5
:103380000013704714ED00E030BFFFF7FDBF00BF32
:103390000B4A08B50B4B22F07F029A60BFF34F8FA8
:1033A000BFF36F8FD3F8882022F47002C3F888200F
:1033B00002F0E2FD03F0F2FB00F0BAFB02F020FEA7
:1033C0000000000000ED00E0094A0A49936809681E
:1033D0009967094958674B6843F080534B60002355
:1033E00083F31188BFF36F8F9368986F704700BFA6
:1033F000340E0020C48D000000ED00E012498A6800
:103400004FF030001044EFF3098C80E8F01F2020CB
:1034100080F31288BFF36F8F0C4F4FF00066CA69BC
:103420008A603E60506F0023536780F3118804B5B3
:10343000104600F019FCBDE8044002F1300090E8AD
:10344000F01F8CF309887047340E002004ED00E073
:103450001EF0040F0CBFEFF30880EFF309808169C1
:1034600011F8021C0229FFD001B504F0BAFC01BD1D
:1034700042F8203C009B42F81C3C0A49019B42F860
:10348000183C029B42F8143C21F001014FF080737C
:1034900042F8043C42F8081C0023203A02654367C6
:1034A000704700BFEF740000094A0346906870B18E
:1034B00013F1160F406E05D0A0F140029A4205D8D4
:1034C000834203D2814228BF00207047002070470A
:1034D000340E002008B5094B98600D46144600F0E4
:1034E000C3FB204685F30988002163B681F3118868
:1034F000BFF36F8F0022002303F0F9FF340E00208A
:1035000001B572B60B4A906900281EBF0021916177
:1035100005F04DF862B6EFF30580A0F110004FEA18
:10352000C0000549014409C99847BDE80140034965
:1035300008470000340E002050890000413500008B
:10354000044B9968D869884203D003494FF08052F0
:103550000A607047340E002004ED00E02DE9F041D0
:1035600086B0064600AF0D463E4B7B6102244FF409
:1035700082513D483C6107F1100204F041FC3B4B95
:103580009B6AD90409D53A4B3748C7E9044307F188
:1035900010024FF4825104F033FC344B9B6A1A053D
:1035A0000AD5344B7B6102232F483B6107F110029F
:1035B0004FF4825104F024FC2C4CA36A9B0522D5C5
:1035C000E8462D4B7B61022327483B6107F110023F
:1035D0004FF4825104F014FCA36BA26A100412D5BC
:1035E00088B06A4625492048C2E90513032342F8FA
:1035F000103F4FF4C25104F003FCC5461EB1A36A4C
:1036000023F40043A362194B9B6A59050AD51C4B4E
:103610007B61022314483B6107F110024FF4825191
:1036200004F0EEFB114B9A6AD20515D5154B7B6160
:1036300002230D483B6107F110024FF4825104F060
:10364000DFFB0A4A936A002043F47F4318379362F2
:103650002870BD46BDE8F0819B6A9B04F1D50A4BFA
:10366000E5E700BFCF920000508B000000ED00E0C6
:10367000E5920000F69200000993000022930000FA
:1036800037930000529300006A93000010B586B093
:10369000334B34480593022404AA4FF48251049416
:1036A00004F0AEFB304B9B6A9B0108D52F4B2D4895
:1036B00004AA4FF48251CDE9044304F0A1FB2A4B44
:1036C0009B6ADC0109D52A4B05932648022304AAEC
:1036D0004FF48251049304F093FB234B9B6A18032D
:1036E00009D5244B05931F48022304AA4FF48251A5
:1036F000049304F085FB1C4B9B6A590309D51E4BB0
:1037000005931848022304AA4FF48251049304F04D
:1037100077FB154B9B6A9A0309D5184B0593114803
:10372000022304AA4FF48251049304F069FB0E4B68
:103730009B6ADB0309D5124B05930A48022304AAAE
:103740004FF48251049304F05BFB074A936A6FEADB
:1037500003436FEA13430020936206B010BD00BF1D
:1037600099930000508B000000ED00E0B193000041
:10377000C4930000DE930000FC930000219400003D
:103780003B9400002DE9F04786B0804600AF0C4620
:1037900015464F4B7B6102264E483E6107F11002F1
:1037A0004FF4825104F02CFB4B4B9B6ADB0609D58E
:1037B0004A4B4848C7E9046307F110024FF48251AD
:1037C00004F01EFB444B9B6A18070AD5444B7B61EF
:1037D000022340483B6107F110024FF4825104F08C
:1037E0000FFBDFF8F4A0DAF82830990739D46FF02E
:1037F0001506394B9B6ADB070AD53A4B7B610223DE
:1038000034483B6107F110024FF4825104F0F8FA9A
:10381000314B9B6A9C060AD5334B7B6102232D48B2
:103820003B6107F110024FF4825104F0E9FA2A4C8F
:10383000A36AD8063ED4A36A99073BD40020A36AA2
:10384000254A9B0642BF636A23F400536362936A6E
:1038500043F0FF039362183700232B70BD46BDE889
:10386000F087E946214B7B6102233B6107F110029F
:1038700018484FF4825104F0C3FADAF83460DAF8E9
:1038800028301A06B3D588B06A46194B1148C2E9E8
:103890000536032342F8103F4FF4C25104F0B0FA4A
:1038A000CD46002CA5D0DAF8283023F08003CAF8E2
:1038B00028309EE763681A05C0D541463046FFF7B9
:1038C000F3FD0028BAD080F309880220B7E700BFD3
:1038D00066940000508B000000ED00E07C94000036
:1038E000F6920000DD9400006A930000AF9400009F
:1038F000C79400002DE9F043774B8BB0D3F80480D8
:1039000000AF0546C8F30804002686F31188BFF30C
:103910006F8F02F07F43B3F17F4F0ED102F00C03A3
:10392000082B19D16D4BFB6102236D48BB6107F178
:1039300018024FF4825104F063FA00263546002342
:10394000FB71E31E092B00F2A680DFE803F00A9961
:103950009C95A4A4A4A4A49F10074CBF0D460126C7
:10396000EDE7E9465F4BFB614FF0020807F11802F3
:103970005B48C7F818804FF4825104F041FA0023E5
:10398000554CFB71E36A9A070BD5574BC7E9068381
:10399000534807F118024FF4825104F031FA002421
:1039A00041E0E36A002B01DA504BEFE7E36A5B008A
:1039B000F5D54F4B4A48C7E9068307F118024FF483
:1039C000825104F01DFA6369AA6943F4807363614C
:1039D000BFF34F8FBFF36F8F636932F8022C23F46C
:1039E00080736361BFF34F8FBFF36F8F4DF6027328
:1039F0009A4208D0A36ADBB28BB3FA1D0121284694
:103A0000FFF7C0FE3AE088B02B686A46394934486F
:103A1000C2E90513032342F8103F4FF4C25104F0EA
:103A2000EFF92C68CD46FB79ABB92022294607F186
:103A3000080004F0F8F97B6A002E47D0C3F30802AF
:103A400022B96FEA53236FEA43237B6207F108012F
:103A50002046FFF7EBFB2C37BD46BDE8F083A36A99
:103A600013F47F4F04D0F91D0120FFF777FD05E027
:103A7000A36AB3F5803F92D3FFF708FE0446D2E76E
:103A8000FA1D0021BBE7F91D0020EEE71A4BFB6190
:103A90000223BB617CE7194A194B18F4F87FE8460A
:103AA0008AB018BF13466A4616490D48C2E9051385
:103AB0004FF400731384103C134BD4614FF4115135
:103AC00042F8103F04F09CF9C54668E723F4FF7301
:103AD00023F00103B9E700BF00ED00E02A950000E4
:103AE000508B0000559500006C9500008D950000EE
:103AF0009B950000BA950000D69500001195000036
:103B0000FC940000FA95000004000001024A536989
:103B100043F010035361704700ED00E0EFF30880BD
:103B2000EFF3098101B57246FFF7E4FE01BD00BF66
:103B3000044800232021C2180133302B82F80013DF
:103B4000F9D1704700E100E0002080F31488BFF352
:103B50006F8FFEF79FFA00200D490860BFF34F8F6B
:103B60000C4880F3088800F02BF8202080F311889F
:103B700009484FF40461401880F30988EFF314807A
:103B80000221084380F31488BFF36F8FFFF700FC16
:103B900094ED00E080210020C01300200749D1F8F7
:103BA00090200023C2F307221846934200DB70479F
:103BB000C1F89830C1F8A0000133F6E700ED00E04D
:103BC00008B572B6002383F31388FFF7E7FF144BA1
:103BD0004FF0FF32C3F88020C3F88420C3F8882058
:103BE000C3F88C20C3F89020C3F89420C3F8982021
:103BF000C3F89C20C3F88021C3F88421C3F888212E
:103C0000C3F88C21C3F89021C3F89421C3F89821FC
:103C1000C3F89C2162B6BFF34F8FBFF36F8F08BD0F
:103C200000E100E0084B9B6883420BD1EFF3058372
:103C300043B1064B5A6842F080525A605A6A22F4E5
:103C400000425A6202F04ABF340E002000ED00E04C
:103C5000024B034A0348012100F092B800000420FF
:103C6000000000206C8C0000426E054B403A1A6048
:103C7000044A4021C3E901121846012100F08AB824
:103C8000800D002000000B152DE9F041DFF8B4E0B5
:103C90009C4600AF154600238B421ADA4468002C7C
:103CA0004DD0BCF1000F1DD0661E344215D06C46BD
:103CB00088B06A462449C2E90513032342F8103F3D
:103CC000224800234FF4C251FEF778FC6FF015052F
:103CD000A5462846BD46BDE8F0811F2CE7D90268FD
:103CE0001642E4D1202C026886685FFA85F814D960
:103CF000B4F1004F13D8013CB4FA84F4C4F11F04AA
:103D00006400B8F1070F46EA04060AD96C4688B089
:103D10006A460F4BC2E90535CFE70824F1E73E2498
:103D2000EFE722F01F022A4342F0100246F001069C
:103D3000CEF89850CEF89C200135CEF8A060013323
:103D40000C30A9E700ED00E011960000488B000060
:103D500034960000044B0522C3F89420BFF34F8F24
:103D6000BFF36F8F704700BF00ED00E0BFF35F8FC0
:103D7000024B0022C3F89420704700BF00ED00E022
:103D800010B5034C01232278FFF77EFF207010BD91
:103D90004810002008B5094A00231278FFF774FF85
:103DA00010F1160F03D0064B0022072800DD08BDD6
:103DB000C3F89800C3F8A0200130F6E748100020AF
:103DC00000ED00E014490868082810B521D8FFF775
:103DD000CDFF124C49680022904201F10C0105D13F
:103DE0000F4B1870FFF7B6FF002010BDC4F89820E5
:103DF00051F80C3C23F01F03134343F01003C4F8A5
:103E00009C3051F8043C43F00103C4F8A030013267
:103E1000E2E74FF0FF30E8E7788C000000ED00E0CB
:103E200048100020014B1860704700BF3000002090
:103E30004FF02002EFF3118382F31288BFF36F8FEC
:103E4000044A0121C2F8401583F31188BFF36F8F34
:103E50000020704700E001404FF08043C0B2C3F83B
:103E60001C05BFF34F8F0549054BCA6802F4E06299
:103E70001343CB60BFF34F8F00BFFDE700ED00E0C1
:103E80000400FA0520B1034B800143F001031847F9
:103E9000704700BFA08B0000084B70B5C31A0D46D9
:103EA00007499B10044659430648402204F000F895
:103EB0002B4601462046BDE870401847A00D002063
:103EC000B76DDBB6E088000073B50C4C0C4A40239C
:103ED000041B00930D460B460A49A4106143064695
:103EE000094804F011F8011E05DA30462B4602B0ED
:103EF000BDE87040184702B070BD00BFA00D0020A3
:103F0000737F0000B76DDBB6E0880000002270B55B
:103F1000012104461046FFF71FFA0F4801F0EAF9A5
:103F20000E4B984215D104F0E4F926690C4930464D
:103F300003F09BFB00280BDB01253564246908494D
:103F400004F11C0003F091FB002801DBE564002074
:103F500070BD6FF00400FBE7993F00000000AD0B5F
:103F6000988C000070B501460C2309484B43C418D7
:103F7000D4E90E5600224033A263184403F085FFB3
:103F80002DB132462B460348BDE87040184770BD3E
:103F9000A00D0020E088000010B1012804D0704777
:103FA000034B1B6C5B0701D1FFF7DCBF704700BF01
:103FB000A00D002008B54FF02003EFF3118183F32B
:103FC0001288BFF36F8F124A136843F0020010602B
:103FD000DA0708D481F31188BFF36F8F0120BDE8A1
:103FE000084004F093B94FF08043D3F80C24D3F881
:103FF0000C34D307EED5074803F047FF81F311884F
:10400000BFF36F8F0020BDE80840FFF7ABBF00BFD4
:10401000F00D0020E00D00201FB500220123CDE9A6
:104020000223094ACDF800D06B46CDF804D003F046
:1040300099FF002805DB4FF480420023684602F018
:104040003DFA05B05DF804FB917F000010B54FF01C
:104050002003EFF3118483F31288BFF36F8F074AB5
:10406000136823F00201DB07116002D4012004F081
:1040700089F984F31188BFF36F8F10BDF00D002014
:104080002DE9F0413849BFF35B8F0746012251E823
:10409000003F41E800200028F9D1BFF35B8F33B91E
:1040A000324933484B60CB608A6003F0F1FA7B1EE3
:1040B000012B2BD8012F07D14FF08043D3F81C34AC
:1040C00003F00303012B21D004F066FA0546F8B98A
:1040D000284B1B78E3B14FF080430222C3F808233A
:1040E0000646DFF894804FF08044D4F81834D4F8B2
:1040F0001824D20316D503F00303012B01D0012F9E
:1041000010D15DB386F31188BFF36F8FBDE8F081E6
:104110004FF02003EFF3118683F31288BFF36F8F04
:104120000125DEE7ADB13046FFF774F8D4F8183555
:10413000002BDAD1D4F80421002AD6D0C4F80431F7
:10414000D4F804310123C4F81835C8F88031A360CD
:10415000CBE70021212002F0A1FCE7E74FF08043EC
:104160000222C3F80423D1E79C0D00208C0D00200F
:10417000BC0D00204C10002000E100E008B507480D
:1041800004F0AEF938B10648FFF74CFE0448FDF7DD
:1041900091FA002008BD6FF01200FBE718890000BB
:1041A000A54100000A2838B5074D044604D1AB6884
:1041B0000D215B6828469847AB6803485B68E1B20D
:1041C0009847204638BD00BF1889000030B54068C8
:1041D000057B01F01F04B2F5001F85B044EA4514C9
:1041E00005D1204601F008FB002005B030BD0025B8
:1041F000B2F5800FCDE9025514D1B3F1007F0CBFA9
:10420000042305238DF808300023194602AA20460E
:1042100001F030F91F4B984239D10121204601F0BD
:10422000A3FAE1E7B3F1C06F26D0B3F1007F14BF6A
:10423000012302238DF808308368CB40D907E3D4EB
:10424000B2F1A07FE0D16209012A04F01F03124AF3
:1042500003F5E07318BF4FF0A04252F82330DB079C
:10426000D2D40DF107052946204601F029FA0B4B5F
:10427000984203D00395C7E70323DBE7284601F004
:104280006DFA044B9842F5D06FF00B00ADE76FF07C
:104290001500AAE70000AD0B000300500400AD0BB1
:1042A00010B501F04BFA044668B901F01FFA084B4B
:1042B00098420AD10748214601F0FCF9224605211F
:1042C0000620FFF749F8002010BD6FF00400FBE75F
:1042D0000000AD0BD9420000430970B507D10B4B6C
:1042E000596821B101250C68094E854001B970BD9E
:1042F0008A682A4002D04B68304698471CB1236830
:1043000021461C46F2E72346FAE700BFF40D0020E1
:10431000FC8800002DE9FF4147683B7B01F01F0549
:1043200045EA43150E4628460DF10301144601F0F7
:10433000C7F914F4403F80460BD1284601F084FAB7
:104340003D4B984503D19DF8030001F001FA002090
:104350000CE00023194602AA2846CDE9023301F0F9
:1043600089F8354B984204D06FF0150004B0BDE8D1
:10437000F081804503D19DF8030001F0E9F9A30322
:104380004BD540F206332340B3F5837F19D00CD8C8
:10439000062B17D004D8ABB1022BE5D1042311E0D2
:1043A000B3F5807FE0D101230CE040F2022293427A
:1043B00027D0B3F5407F26D0B3F5007FD4D10223B8
:1043C00000E007238DF8043084F48033C3F3004306
:1043D000E0068DF8053054BFC4F3401303232103D6
:1043E0008DF8063011D57A680123B340C2F808353C
:1043F000002201A9284601F0EBF80F4B9842A6D005
:10440000B2E70523DEE70323DCE7620341BF0123B4
:104410007A68B340C2F80C35EAE7E3064FF00003D0
:1044200054BFC4F3401403241A4601A928468DF84A
:10443000044001F01FF8E0E70000AD0B0248002146
:10444000C2E90001002070470024F400F8B5466876
:10445000046900AF05460021B06A03F0F1FD0028B1
:104460004FDB00222948A273336802F5AC7153F880
:104470002130002B12DB03F01F015B09012B0CBF65
:1044800003464FF0A043D3F80435CB4013F00103AB
:10449000A17B1CBF012393400B43A3730132042A69
:1044A000E2D1A17B00230234012000FA03F20A4288
:1044B0000CBF012200220133D203042B24F8022F67
:1044C000F3D100231A4606F10801304601F04EFBF5
:1044D0000F4B984217D06C4688B02B686A460D493E
:1044E000C2E905134FF4007393830B4B42F8103F5E
:1044F0000A4800234FF4E251FEF760F86FF00F0016
:10450000A546BD46F8BD0020FBE700BF00030050F4
:104510000000AD0BA496000003000001688B0000B2
:104520002DE9F04186B000AF0329B7F830E04568C7
:10453000046916460EF0010E10D96C4688B06A4622
:104540005E4BC2E90531032342F8103F5C4800236B
:104550004FF4C251FEF732F8A5461FE0AA7B012AAC
:104560004FF0010C04BF5B0876080CFA01FC002B2D
:1045700079D09E4243D92068227B864223D032EAFA
:104580000C0211D04F4B7B6102233B614C4800234E
:1045900007F110024FF48251FEF710F86FF015008A
:1045A0001837BD46BDE8F0813046B0F5004F1AD24D
:1045B000266062732E6895F80E80C6F80C25C6F842
:1045C0000485C6F80805627BD3409BB2BEF1000F9C
:1045D00001D143F4004304EB41018B80237B43EA88
:1045E0000C03237335E00132082A4FEA5000DCD176
:1045F0006C4688B06A46344BC2E90536A3E74B00E7
:10460000234401F5AC71BEF1000F15D047F6FF72DF
:104610009A802B6853F82130002B15DB03F01F0123
:104620005B09012B4FF00102284B18BF4FF0A0434C
:104630008A40C3F80C2507E04FF6FF729A802B687A
:1046400053F82130002B1BDA217B21EA0C01217366
:1046500021B3E37B4BBB0023012205F1180128465F
:1046600001F068FB1FE04A00224401F5AC71BEF185
:10467000000F01D09380E2E74FF400439380C8E736
:1046800003F01F015B09012B4FF001020F4B18BF14
:104690004FF0A0438A40C3F80825D5E7284603F029
:1046A00007FF0123E37300207AE70023E373284622
:1046B00001F086FB0028FAD0CDE700BFC4960000C9
:1046C000688B0000D9960000EE96000000030050B1
:1046D000F0B54B79012B26D0032B21D110258B79F6
:1046E000032B1DD1CE790EB1012E19D10A7912B149
:1046F000022A15D10E220B684468B3F5164F2768BD
:1047000067D02DD8B3F5165F66D016D8B3F5966F7F
:1047100064D00AD8B3F5967F63D0B3F5167F63D023
:104720006FF0850054E00025D9E7B3F5166F5ED031
:10473000B3F5965FF4D1384B3CE0B3F5E14F59D077
:1047400007D8B3F5615F57D0B3F5964FE8D1334B37
:1047500030E047F61224A342E2D14FF4000329E0EF
:10476000B3F5613F4AD013D8B3F5963F49D009D885
:104770004DF6C024A34246D0B3F5614FD0D14FF4DB
:104780006B0317E0B3F5E13FCAD14FF0EB7311E0D3
:10479000B3F5612F3AD008D8214CA34239D0B3F5F4
:1047A000E12FBDD14FF0E86304E01E4CA342B7D126
:1047B0004FF080530469C7F82435436835431B68BC
:1047C0002A43C3F86C2503C9231D83E80300002096
:1047D000F0BD4FF41D03EDE7134BEBE74FF49E23C1
:1047E000E8E74FF4A033E5E74FF41C33E2E74FF47A
:1047F0001D23DFE70D4BDDE70D4BDBE74FF06C735F
:10480000D8E70C4BD6E74FF46503D3E74FF070635E
:10481000D0E74FF08063CDE700B0130000A04E005A
:1048200090D0030040420F000050270000C07500E8
:1048300000F03A0000903A012DE9F0410022804654
:1048400086B001210220FEF787FD0220FEF754FD0D
:10485000D8F80470D8F810603C680021C4F800153E
:10486000C6F80080F86803F089FC051E1CDB311DCA
:104870004046FFF72DFF0546B0B97B6899072BD559
:1048800006F1180001F06CF9274B984210D0274B25
:1048900005930223049326482B4604AA4FF4825121
:1048A0006FF00405FDF78AFE284606B0BDE8F081EA
:1048B000337EDB0003F1804303F5F83304F10C028F
:1048C00004F59071C3F81015C3F81425327E012346
:1048D0009340184AC2F804350823C4F800353B7ADF
:1048E00053B9C4F81031D4F810317369C4F83435B1
:1048F0000123C4F8383523607B689A075CBF4FF406
:104900008073C4F804337B68DB0644BF4FF4800334
:10491000C4F804333369C4F844350023C4F8483577
:104920000123A360E360BFE70000AD0B2E970000FA
:10493000788B000000F001402DE9F341044607693F
:104940000D4603F029FEB0B9334B1B789BB16426AA
:10495000606803F0CAFB00BB012003F0C8FC013E05
:10496000F6D10021212002F099F8F0E781F31188B7
:10497000BFF36F8FF5E74FF02003EFF3118183F35F
:104980001288BFF36F8F60680E4603F0AEFB90B9DC
:1049900081F31188BFF36F8FEDE74FF02003EFF342
:1049A000118183F31288BFF36F8F60680E4603F0A6
:1049B0009CFB0028DAD03B691D70D7F8108067682F
:1049C0000DF1070120463D6803F0E0F99DF807303E
:1049D000D3B90122C5F84485C5F84825C5F820316A
:1049E000D5F82021C5F85831D5F858317B68DB0659
:1049F00008D563681B680822C3F800254FF48003BC
:104A0000C5F804330123AB6086F31188BFF36F8FC1
:104A100002B0BDE8F08100BF4C10002070B501234A
:104A200083400E4ABFF35B8FDC4352E8001F01EA6C
:104A3000040542E80056002EF7D1BFF35B8F4FF418
:104A4000803282400648C0F80823BFF35F8FBFF36F
:104A50006F8F0B4214BF0120002070BD140E002088
:104A60000010014070B40E49D1E90034D01AC318C7
:104A700044F1000422F07F46C1E90034A6F500139A
:104A8000B3F5400F09D2074B1B681A0A1B069C1985
:104A9000054B42F10005C3E9004570BC02F064B962
:104AA000F0060020180E0020F806002011B3BFF316
:104AB0005B8F0123104A834052E800CF4CEA030C7D
:104AC00042E800C10029F7D1BFF35B8F0B4A4FF4D6
:104AD00080338340C2F80433094BBFF35B8F1B68FC
:104AE000BFF35B8FC340DB0742BF064B4FF400327E
:104AF000C3F80021704700BF140E002000100140D1
:104B0000100E002000E100E00D4B1868010A0006BD
:104B1000BFF35F8F0B4BD3F80435181841F1000138
:104B2000B3F5801F0AD2084BD3E90023904271EB02
:104B3000030303D210F1807041F10001704700BF00
:104B4000180E002000100140F80600202DE9F74F54
:104B500016461F460446FFF761FF0090FFF7D4FF9B
:104B6000B04271EB070351D23A4B301A67EB0101A7
:104B7000984271F100016AD2374B03EB0413D3E979
:104B800002239F4208BF96424ED034494FF48039E9
:104B900004F1500509FA04F9AD00C1F84893204624
:104BA000ADB203F075FB26F07F4B05F1804504F5AF
:104BB000A8732B4A019305F58835DC464FF0030AAC
:104BC000019B2CF07F4041F82300C1F84493D1F8B9
:104BD00004856FF00200A0EB0800604420F07F40E5
:104BE000904221D9286860B1D1F80485A8EB0B0068
:104BF00020F07F40B0F5000F16D9204603F048FBA7
:104C0000174A0AEB080C0AF1010AD9E70123154AF1
:104C1000BFF35B8FA34052E8000F184342E8000146
:104C20000029F8D1BFF35B8F0B490C98230101EBEE
:104C30000412C2E90267C8500D9B5360002520464C
:104C40000099FFF733FF284603B0BDE8F08F6FF0FF
:104C50001505F4E701008000E00600200010014087
:104C6000FDFF7F00100E002073B5194B194D002475
:104C70004FF0FF304FF0FF31C5F80845C3E902019E
:104C80004FF48033C5F80433134B02264FF400323F
:104C90000121C5F804631120C3F880212246FEF7E4
:104CA0005BFB1120FEF728FB0C4A0123AB602B6055
:104CB00013600B4B0B4A0093019400232046FFF72F
:104CC00045FF3046FFF7DCF9204602B070BD00BF5B
:104CD000E00600200010014000E100E0140E00207A
:104CE000654A0000FFFF7F002DE9F7432F4CD4F801
:104CF000043399070BD5D4F8043143B12C4A00236F
:104D0000C4F80431D4F80431136801331360D4F8C3
:104D10000433DA032AD5BFF35B8F264B53E8002F09
:104D200022F0010143E800100028F7D1BFF35B8FA8
:104D3000D30702D4D4F84031C3B10025C4F84051A0
:104D4000D4F84031FFF7E0FE4FF02003EFF311827B
:104D500083F31288BFF36F8F174BD3E90267B0421A
:104D6000B94106D282F31188BFF36F8F03B0BDE85B
:104D7000F0834FF0FF384FF0FF39C3E90289D3E9E0
:104D800000101D604FF48033C4F84833C4F840511C
:104D9000D4F8403182F31188BFF36F8F0029E5D03A
:104DA000009032463B4628468847DFE70010014026
:104DB000180E0020100E0020E0060020431C13B542
:104DC00022D0012822DD124A124B9042D4BF044661
:104DD0001C46FFF799FE104B0E49D3E90023801AB9
:104DE000B0F5000F28BF002404448C4228BF0C46B5
:104DF000A2180A4900914FF00000019043F100030E
:104E0000FFF7A4FE02B010BD024CE2E70124E0E788
:104E1000FEFF7F00FFFF7F00F0060020654A0000D4
:104E200008B5FFF771FE024B1B68C01A08BD00BF32
:104E3000F00600202DE9F043444D00EB81010126EE
:104E4000814202D10020BDE8F083D0F800C00CF010
:104E50007F037F2B08BF4FF0FF33BCF5802FCCF3CF
:104E600043274FEA1C440DD2013C022C12D8DFE844
:104E700004F022474A00173C022C47D8DFE804F030
:104E80005D606300A4F1160CBCF1030FF3D96FF061
:104E90008500D8E7C2F80C354FEA531CBCF1010F6E
:104EA00003F01F0414BF4FF0A04CAC4606FA04F404
:104EB000CCF808453FE0C2F81435002450F8049BB4
:104EC00009F4005EBEF1000F03F01F0C4FEA53130C
:104ED0000EBFA6464FF0010E0024C9F3C119012BE5
:104EE0004FEA072343EA89030CBFA8464FF0A048C6
:104EF00023430CF5E07C43EA4E0348F82C309FE74F
:104F0000C2F80835C8E7C2F81035D6E7C2F86035F0
:104F10000468C4F3803403F01F0C4FEA531E002CC6
:104F2000BAD1BEF1010F14BF4FF0A04EAE4606FA43
:104F30000CF4CEF80C450124C0E7C2F86435E7E76D
:104F4000C2F86835E4E7C2F86C35E1E700030050C9
:104F50007FB5FDF753FA074B0593022304930648E8
:104F6000002304AA4FF48251FDF728FB0020FEF72E
:104F700073FF00BF6B970000208B0000BFF34F8FC3
:104F80000549064BCA6802F4E0621343CB60BFF3E5
:104F90004F8F00BFFDE700BF00ED00E00400FA0501
:104FA0004FF08053D3F83021082A06D1D3F834319A
:104FB000052B02D8024AD05C70470020704700BF22
:104FC0008E970000024AD2F80034002BFBD07047C5
:104FD00000E0014010B54FF08053D3F83021082A8B
:104FE0004ED14FF080420021C2F80C11C2F81011CE
:104FF000C2F8381502F54042D3F80414C2F820155F
:10500000D3F80814C2F82415D3F80C14C2F82815E4
:10501000D3F81014C2F82C15D3F81414C2F83015B4
:10502000D3F81814C2F83415D3F81C14C2F840157C
:10503000D3F82014C2F84415D3F82414C2F8481544
:10504000D3F82814C2F84C15D3F82C14C2F8501514
:10505000D3F83014C2F85415D3F83414C2F86015DC
:10506000D3F83814C2F86415D3F83C14C2F86815A4
:10507000D3F84014C2F86C15D3F84434C2F8703534
:10508000FFF78EFF18B1414B414AC3F88C26FFF75A
:1050900087FF18B13F4BFB22C3F81825FFF780FFAD
:1050A00070B14FF080414FF08053D1F8E42ED3F827
:1050B000583222F00F0203F00F031343C1F8E43E0D
:1050C000FFF76EFF20B1344B4FF40072C3F8402657
:1050D0004FF08053D3F83031082B1AD14FF0804372
:1050E000D3F80024D20744BF6FF00102C3F80024B4
:1050F0004FF08053D3F83431052B02D8274AD35CC4
:105100003BB14FF01023D3F808224FF08043C3F88F
:1051100058254FF01021D1F80C32DB0714D5204868
:105120000123C0F80435FFF74DFFD1F80C3223F00E
:105130000103C1F80C32FFF745FF0023C0F8043526
:10514000FFF740FFFFF71AFFD1F80032002B03DB17
:10515000D1F80432002B14DA114901234FF010204A
:10516000C1F804351224FFF72DFFC0F80042FFF705
:1051700029FFC0F80442FFF725FF0023C1F80435DA
:10518000DEE7084B084A1A6010BD00BF005000401F
:105190004881030000F00040009002408897000022
:1051A00000E00140700000200090D00370B50125A0
:1051B0000268BFF35B8FB2FA82F3C3F11F03DBB265
:1051C00005FA03F422EA040450E8006F964204D181
:1051D00040E8004CBCF1000FF6D1BFF35B8FE7D184
:1051E00001480B7070BD00BF0000AD0B10B5036827
:1051F000CB40DB0714D401238B400268BFF35B8FE5
:1052000043EA020150E8004F944204D140E8001CF8
:10521000BCF1000FF6D1BFF35B8FEED1014810BD9A
:105220000148FCE70000AD0B0400AD0BF7B50446E8
:1052300018B1012822D003B0F0BD4FF08043022204
:10524000C3F80823C3F80401D3F804210122DA606B
:10525000074601238DF8073042F210754FF0804663
:10526000CCB1012CE7D1C7B3D6F80C3403F001035D
:105270003B70D6F80C34DA0321D516E04FF08043AA
:105280000022C3F80803C3F80021D3F800215860B6
:105290000DF10707DDE7B7B1D6F8183403F00303C3
:1052A0003B60D6F81834D803C5D59DF8070001280F
:1052B00003D103F01CF8013DD2D1012CBBD10C4B22
:1052C00000225A71B7E7D6F81834D903B3D50120B4
:1052D00003F00DF8013DF6D1ADE7D6F80C34DB0351
:1052E000EDD5012003F003F8013DF6D1E7E700BF5B
:1052F0001C0E0020044B1A7922B9012218609A80F2
:1053000002487047024870471C0E00200000AD0B99
:105310000C00AD0B10B54FF08043D3F800216AB1FB
:105320000022C3F80021D3F800210122C3F808238A
:10533000114B587910B95A711B6898474FF0804348
:10534000D3F8042172B10022C3F80421D3F8042158
:10535000D3F81824D3F81814920704D10122C3F803
:1053600018259A6010BD0222C3F80823024BBDE83D
:1053700010401B68012018471C0E0020036803F032
:105380001F025B09012B0260024818BF4FF0A040CA
:10539000704700BF00030050034B083033F8100083
:1053A000C0F34010704700BF7400002070B500F1DA
:1053B00008030C4C34F81330DA0505460E4607D5C1
:1053C000C3F3432304EBC30254F8333052689847C5
:1053D000A3682BB1E26831462846BDE87040184703
:1053E00070BD00BF7400002010B4124A083032F8BB
:1053F0001030D9051BD5C3F3432123F4F85322F809
:10540000103002F10E04002034F8023F13F4807FC4
:1054100003D0C3F34323994209D001303028F3D19C
:10542000002342F83130044810BCFFF7DFBE10BC47
:10543000704700BF74000020E800002038B5024625
:10544000FFF7AAFF094C02F1080540B134F8153006
:1054500007495B0B03F5A273002041F823001046B7
:10546000FFF7C2FF002324F8153038BD7400002078
:10547000006000402DE9FF41044616461D4601B379
:105480004E4F00F1080837F818309B0702D5FFF798
:1054900083FF10BB0023CDE900338DF80E308DF86B
:1054A0000F300DF10F020B4620460DF10E0102F0F8
:1054B0006BFF37F8183023F0020343F0010327F89D
:1054C000183046B33D4B96F800C0726804F10807E7
:1054D00033F81710880702D5AAB139481DE021F02A
:1054E0002001C904C90C23F8171062B1BCF1030FE5
:1054F000F3D872681678BCF1000F11D1314A06F565
:10550000A27642F826C033F8172022F01C0242EAA5
:105510008C0223F8172045BB2B4804B0BDE8F0816E
:10552000B20002F1804202F5C04241EA4631D2F8AF
:10553000100520F00300C2F81005D2F8100520F481
:105540004F3020F44070C2F810052002D2F810E568
:1055500000F47C5040EA0C4040EA0E0041F020018B
:1055600023F81710C2F81005CDE7D5E900672046EB
:10557000FFF73AFF002ECFD0104DD5E90023964219
:1055800001D19F4218D011480DF10F01FFF70EFE17
:105590000D4B9842C1D19DF80F2045F8326005EBC4
:1055A000C20308345F6035F8143043EA422343F401
:1055B000807325F81430AFE70022EEE77400002076
:1055C0000400AD0B006000400000AD0BE8000020BF
:1055D000F0B5044685B0154619B3334E00F10807FF
:1055E00036F81720930703D4FFF7D6FE002858D1CA
:1055F00012F01C0F02D04B78012B52D001238DF8F2
:105600000F300023CDE900134A1C8B1C20460DF1FE
:105610000F0102F0B9FE36F8173043F0030326F805
:10562000173015B9214805B0F0BD1F4E04F1080729
:1056300036F81700830734D595F800C06146890015
:1056400020F0200001F18041C00401F5C041C00CF0
:1056500026F817000023C1F810356A78002AE1D037
:10566000D1F81035AD7823F4991323F4F853C1F829
:105670001035D1F810E5230203F47C53120402F430
:10568000403243EA0E0313432A0502F4801240EA33
:105690004C30134340F0200026F81700C1F81035B5
:1056A000C0E70348BFE700BF740000200000AD0B57
:1056B0000400AD0B014BC3E90201704774000020E8
:1056C00008B50246FFF768FE38B1054B05480832B9
:1056D00033F812305B0B0B7008BD0348FCE700BFCA
:1056E000740000200000AD0B0400AD0B38B50F4C6A
:1056F00094F87850BDB96022294604F1100002F0F8
:105700009DFB0620FDF7F8FD094B0A48C3F87C51C4
:10571000D3F87C214FF00042C3F80423012384F81E
:105720007830636738BD0448FCE700BF7400002090
:10573000006000400000AD0B0500AD0B034B93F87B
:105740007800003818BF0120704700BF74000020A7
:1057500001460148FFF74ABDE40000200146014828
:10576000FFF724BDE400002037B50446FFF714FE20
:1057700004F108021E4B33F81230E8B113F00205B1
:105780001AD15B0B9A0002F1804000F5C24002F191
:10579000804202F5C04205600068D2F8100540F072
:1057A0000100C2F8100529B1012202FA03F3114ADF
:1057B000C2F8043303B030BDC3F38203042B12D00C
:1057C000052B12D001A80194FFF7D8FD019BD0F85A
:1057D0001015D94001F001010231204603B0BDE8A7
:1057E000304002F01ABE0321F7E70221F5E700BFBF
:1057F000740000200060004008B50246FFF7CCFDB1
:10580000C0B102F108010E4B33F81130990711D4E1
:105810005B0B01229A409B000A4903F1804303F588
:10582000C043C1F80823D3F8102522F00302C3F8BF
:10583000102508BDBDE808400021104602F0EDBD6E
:10584000740000200060004013B50E4B00F1080208
:10585000044633F81230DB0711D5FFF7CDFF2046A1
:10586000FFF7ECFD01A80194FFF788FD019B03F50C
:10587000E073022240F82320034802B010BD034821
:10588000FBE700BF740000200000AD0B0400AD0B6F
:105890002DE9F04F684B69486949002687B001221D
:1058A00034461D6835B1D0F8045315421EBF1C6044
:1058B0001D68164304338B424FEA4202F1D1DFF8F0
:1058C0007C91D9F87C31002B00F099804FF0A043F7
:1058D000D3F820250492C3F82025D3F82028059278
:1058E000C3F820284FF000080DF1100A4FEA4813C2
:1058F00000934FF0010B49E0009B524A94FAA4F444
:10590000B4FA84F41C44E00804F10803039432F868
:1059100013701AF8003004F007020BFA02F223EABF
:1059200002030AF8003003A8FFF728FD039B03F5E4
:10593000E073B90850F82330C7F382054A072F46B1
:10594000C3F301432CD520463946DDB2FFF72EFDC7
:1059500003A80394FFF712FD039B03F5E07350F8CF
:105960002330C3F301439D4207D10021204602F0BA
:1059700054FD2946204602F050FD03A80394FFF78A
:10598000FDFC039B0BFA03F3C0F820355AF82840BE
:10599000002CB1D1B8F1000F1DD14FF00108A5E7DF
:1059A000022B0CD10321204602F037FD05F0050340
:1059B000012BE2D139462046FFF7F8FCDDE7022152
:1059C0002046019302F029FD032DF3D0019B032B08
:1059D000D3D1022DEDE74FF0A042C9F87C41D9F8B0
:1059E0007C311949D2F820350493C2F82035D1F81A
:1059F000202505921343C1F820257FF473AF0124BD
:105A000016B907B0BDE8F08F96FAA6F3B3FA83F3A0
:105A100004FA03F29B0003F1804303F5C04326EA36
:105A20000206D3F81005D3F81015C0F30520C1F312
:105A30000141FFF7BBFCE3E700610040006000406C
:105A400020610040740000200003005000F18043FA
:105A500003F598331A6852B1054AD2F804230A4272
:105A600005D000221A601B68024B1B68184770475C
:105A700000300140240E002038B5294C2278002A3D
:105A80004BD1284B1960284B01215960C3F80025E0
:105A9000026802F00F02C3F80825026802F007014D
:105AA000072904BFC2F30042C3F80C25027902F0B3
:105AB0000302C3F82025427902F00102C3F8382519
:105AC0000F210022C3F80022C3F80813057AD3F887
:105AD0000015C3F80025D3F8042522F007022A4355
